:100000000C942A000C9434000C9434000C943400AA
:100010000C9434000C9434000C9434000C94340090
:100020000C9434000C9434000C9434000C94340080
:100030000C9434000C9434000C9434000C94340070
:100040000C9434000C9434000C9434000C94340060
:100050000C94340011241FBECFE5D8E0DEBFCDBF25
:100060000E9436000C9456000C9400000E943C0044
:1000700081E40E944C00FFCF87B3806B87BB87B3BE
:100080008F7B87BB88B3806188BB8DB181658DB95B
:100090008EB18E7F8EB9089598B39F7E98BB8FB92D
:1000A0008EB18FB188B3806188BB0895F894FFCF7B
:00000001FF
