S018000061746D65676133325F647269766572732E73726563DA
S11300000C942A000C9449000C9447000C9447006B
S11300100C9447000C9447000C9447000C94470040
S11300200C9447000C9447000C9447000C94470030
S11300300C9447000C9447000C9447000C94470020
S11300400C9447000C9447000C9447000C94470010
S11300500C94470011241FBECFE5D8E0DEBFCDBF0E
S113006010E0A0E6B0E0E0E0F2E002C005900D92FE
S1130070A236B107D9F720E0A2E6B0E001C01D9294
S1130080A436B207E1F70E949A000C94FE000C9487
S113009000001F920F920FB60F9211242F933F93DB
S11300A04F935F936F937F938F939F93AF93BF937C
S11300B0EF93FF93CF93DF931F92CDB7DEB7809179
S11300C06000813019F5AE014F5F5F4F60E080E062
S11300D00E949D008981882319F01092630011C049
S11300E0AE014F5F5F4F62E080E00E949D00898116
S11300F0882321F082E08093630003C081E0809331
S1130100630081E080936200109260000F90DF91A1
S1130110CF91FF91EF91BF91AF919F918F917F917B
S11301206F915F914F913F912F910F900FBE0F9060
S11301301F90189580E090E008958130E9F030F048
S1130140823081F1833009F443C0089579B381E0AA
S113015090E09C01062E02C0220F331F0A94E2F79E
S1130160872F90E08223932302C0959587956A9503
S1130170E2F7FA018083089576B381E090E09C0170
S1130180062E02C0220F331F0A94E2F7872F90E055
S11301908223932302C0959587956A95E2F7FA0125
S11301A08083089573B381E090E09C01062E02C021
S11301B0220F331F0A94E2F7872F90E082239323C0
S11301C002C0959587956A95E2F7FA0180830895B0
S11301D070B381E090E09C01062E02C0220F331F11
S11301E00A94E2F7872F90E08223932302C0959527
S11301F087956A95E2F7FA0180830895F894FFCF12
S10502000100F7
S9030000FC
