S018000061746D65676133325F647269766572732E73726563DA
S11300000C942A000C943F000C943F000C943F0085
S11300100C943F000C943F000C943F000C943F0060
S11300200C943F000C943F000C943F000C943F0050
S11300300C943F000C943F000C943F000C943F0040
S11300400C943F000C943F000C943F000C943F0030
S11300500C943F0011241FBECFE5D8E0DEBFCDBF16
S113006010E0A0E6B0E0E4ECF1E002C005900D92EF
S1130070AA36B107D9F70E948D000C94E0000C94C5
S113008000008BB384608BBB81E090E00E949600FB
S11300908BB38B7F8BBB0895CF93C82F8BB38F709B
S11300A09C2F907F892B85BB8BB38C7F8BBB0E944D
S11300B0410081E090E00E9496002BB330E1C39FA1
S11300C0C0011124922F9F70892B85BB0E9441008F
S11300D082E090E00E949600CF9108958AB38760F1
S11300E08ABB8BB387708BBB8FEF84BB84E190E0BA
S11300F00E94960082E00E944C0088E20E944C001C
S11301008FE00E944C0086E00E944C0081E00E9437
S11301104C0080E80E944C0008950E946E000E94EA
S1130120A70080E690E00E94CA00FFCF40E050E0C4
S11301300AC02F5F3F4F02C020E030E02F3F31055F
S1130140C0F34F5F5F4F48175907B0F3089510BCD1
S113015083E389B980B5806880BD80B58F7B80BD1D
S113016080B58F7D80BD80B58F7E80BD80B5877F53
S113017080BD80B5826080BD80B5846080BD8AB159
S113018084608AB98AB188618AB908955D9BFECF7B
S11301908CB908950F931F93CF938C01C0E003C0D3
S11301A00E94C600CF5FF801EC0FF11D8081C817D3
S11301B0B8F38DE00E94C600CF911F910F9108956E
S10701C0F894FFCFDD
S10D01C4416C69205461696D61000B
S9030000FC
