S018000061746D65676133325F647269766572732E73726563DA
S11300000C942A000C9434000C9434000C943400A6
S11300100C9434000C9434000C9434000C9434008C
S11300200C9434000C9434000C9434000C9434007C
S11300300C9434000C9434000C9434000C9434006C
S11300400C9434000C9434000C9434000C9434005C
S11300500C94340011241FBECFE5D8E0DEBFCDBF21
S11300600E9436000C9450000C94000081B3806E02
S113007081BB85B7846085BF85B78C6085BF84B735
S11300808F7B84BF8BB7806E8BBF789482B38F7D58
S113009082BB82B38F7B82BB82B38F7782BBF6CF66
S10700A0F894FFCFFE
S9030000FC
