:100000000C942A000C943F000C943F000C943F0089
:100010000C943F000C943F000C943F000C943F0064
:100020000C943F000C943F000C943F000C943F0054
:100030000C943F000C943F000C943F000C943F0044
:100040000C943F000C943F000C943F000C943F0034
:100050000C943F0011241FBECFE5D8E0DEBFCDBF1A
:1000600010E0A0E6B0E0EEECF0E002C005900D92EA
:10007000AA36B107D9F70E9441000C9465000C9490
:1000800000008FEF84BBC0E0D0E00AC0FE01E05A60
:10009000FF4F808185BB80E991E00E94540021964A
:1000A000CA30D1059CF3EFCF40E050E00AC02F5F8B
:1000B0003F4F02C020E030E02F3F3105C0F34F5FDB
:0E00C0005F4F48175907B0F30895F894FFCF2B
:0A00CE00C0792430191202F8001066
:00000001FF
