:100000000C942A000C943C000C943C000C943C0092
:100010000C943C000C943C000C943C000C943C0070
:100020000C943C000C943C000C943C000C943C0060
:100030000C943C000C943C000C943C000C943C0050
:100040000C943C000C943C000C943C000C943C0040
:100050000C943C0011241FBECFE5D8E0DEBFCDBF1D
:1000600020E0A0E6B0E001C01D92A136B207E1F7A2
:100070000E943E000C94E2000C940000CF93DF93AA
:100080001F92CDB7DEB70E946E000E9472008111F0
:1000900010C060E080E10E948100853051F441E0B1
:1000A00060E0CE0101960E94A4008C3011F40E9401
:1000B000DC000E947200811110C061E080E10E94AA
:1000C0008100833051F440E061E0CE0101960E944E
:1000D000A400893011F40E94DC00FFCF11B889EF31
:1000E00080B9089584EA86BF06B607FEFDCF81B1C8
:1000F000887F80936000883011F081E0089580E06F
:100100000895611103C08F5F83B903C0613009F4A2
:1001100083B984E886BF06B607FEFDCF81B1887F2C
:1001200080936000883141F0803241F0803441F0AA
:10013000883441F486E0089583E0089584E00895CA
:1001400085E0089587E00895613091F4FC01808195
:1001500083B984E886BF06B607FEFDCF81B1887FEC
:1001600080936000883201F1883201F589E00895BA
:10017000611119C0411103C024EC26BF04C0411114
:1001800002C024E826BF06B607FEFDCF23B1FC015E
:10019000208381B1887F80936000803549F080356D
:1001A00049F48CE00895089588E008958AE0089560
:1001B0008BE008958DE0089584E986BF06B607FEBA
:0801C000FDCF0895F894FFCF74
:00000001FF
