S018000061746D65676133325F647269766572732E73726563DA
S11300000C942A000C943F000C943F000C943F0085
S11300100C943F000C943F000C943F000C943F0060
S11300200C943F000C943F000C943F000C943F0050
S11300300C943F000C943F000C943F000C943F0040
S11300400C943F000C943F000C943F000C943F0030
S11300500C943F0011241FBECFE5D8E0DEBFCDBF16
S113006010E0A0E6B0E0E4ECF1E002C005900D92EF
S1130070A037B107D9F70E94C8000C94E0000C9493
S1130080000088B3886088BB81E090E00E94CF00C4
S113009088B3877F88BB0895CF93C82F88B38F70A8
S11300A09C2F907F892B8BBB88B3897F88BB0E9450
S11300B0410081E090E00E94CF0028B330E1C39F6B
S11300C0C0011124922F9F70892B8BBB0E94410089
S11300D082E090E00E94CF00CF91089587B38E60B4
S11300E087BB88B38E7088BB8FEF8ABB84E190E0B6
S11300F00E94CF0082E00E944C0088E20E944C00E3
S11301008FE00E944C0086E00E944C0081E00E9437
S11301104C0080E80E944C000895CF93C82F88B308
S11301208F709C2F907F892B8BBB88B3826088BB98
S113013088B38B7F88BB0E94410081E090E00E94DD
S1130140CF0028B330E1C39FC0011124922F9F70C8
S1130150892B8BBB0E94410082E090E00E94CF007B
S1130160CF9108950F931F93CF93DF938C01C0E039
S1130170D0E003C00E948D002196F801EC0FFD1F12
S113018080818111F7CFDF91CF911F910F91089555
S11301900E946E0080E690E00E94B200FFCF40E033
S11301A050E00AC02F5F3F4F02C020E030E02F3FF5
S11301B03105C0F34F5F5F4F48175907B0F30895F7
S10701C0F894FFCFDD
S11301C44C6561726E20496E204465707468000049
S9030000FC
