S01A00006C63645F6B65797061645F647269766572732E737265639C
S11300000C942A000C9434000C9434000C943400A6
S11300100C9434000C9434000C9434000C9434008C
S11300200C9434000C9434000C9434000C9434007C
S11300300C9434000C9434000C9434000C9434006C
S11300400C9434000C9434000C9434000C9434005C
S11300500C94340011241FBECFE5D8E0DEBFCDBF21
S11300600E9467010C9479010C9400008AB3807F8C
S11300708ABB8AB3806F8ABB8FEF8BBB0895CF9303
S1130080DF93CDB7DEB728970FB6F894DEBF0FBE67
S1130090CDBF198281E08A8382E08B8383E08C83E5
S11300A084E08D8385E08E8386E08F8387E0888774
S11300B0A0E06EC08BB3806F8BBB2BB3E5E0F0E0A8
S11300C0EC0FFD1FEA0FF11D81E090E0008002C0FB
S11300D0880F991F0A94E2F7809582238BBB60E016
S11300E053C089B3E1E0F0E0EC0FFD1FE60FF11D12
S11300F07081472F21E030E0072E02C0220F331F0A
S11301000A94E2F790E08223932302C095958795A1
S11301107A95E2F7892BB9F589B390E0822393238A
S1130120042E02C0959587950A94E2F7892BA1F3D2
S1130130613079F028F06230A9F06330E1F023C037
S1130140AA2359F1A13059F1A23059F1A330D9F4BD
S11301502AC0AA2351F1A13051F1A23051F1A330A8
S113016091F429C0AA2349F1A13049F1A23049F1FF
S1130170A33049F428C0AA2341F1A13041F1A230AF
S113018041F1A33041F16F5F643008F4AACFAF5F4F
S1130190A43008F48FCF8EE41FC087E31DC088E32A
S11301A01BC089E319C08FE217C084E315C085E33F
S11301B013C086E311C08AE20FC081E30DC082E35D
S11301C00BC083E309C08DE207C08FE305C080E361
S11301D003C08DE301C08BE228960FB6F894DEBF0E
S11301E00FBECDBFDF91CF91089582B3846082BBEF
S11301F0000082B38B7F82BB0895CF93C82F82B354
S11302008F709C2F907F892B85BB82B38C7F82BBA0
S11302100E94F50032E43A95F1F700C022B330E1D0
S1130220C39FC0011124922F9F70892B85BB0E940C
S1130230F50083EF91E00197F1F700C00000CF9142
S1130240089581B3876081BB82B3877082BB87E8DE
S113025093E10197F1F700C0000082E00E94FD00E5
S113026088E20E94FD008FE00E94FD0086E00E946B
S1130270FD0081E00E94FD0080E80E94FD000895D9
S1130280CF93C82F82B38F709C2F907F892B85BB0F
S113029082B3816082BB82B38D7F82BB0E94F500F2
S11302A032E43A95F1F700C022B330E1C39FC001B4
S11302B01124922F9F70892B85BB0E94F50083EF38
S11302C091E00197F1F700C00000CF9108950E94DA
S11302D036000E9421010E943F008F3319F08E34B2
S11302E0D1F304C081E00E94FD00F5CF0E944001DB
S10902F0F2CFF894FFCFE9
S9030000FC
