S018000061746D65676133325F647269766572732E73726563DA
S11300000C942A000C9434000C9434000C943400A6
S11300100C9434000C9434000C9434000C9434008C
S11300200C9434000C9434000C9434000C9434007C
S11300300C9434000C9434000C9434000C9434006C
S11300400C9434000C9434000C9434000C9434005C
S11300500C94340011241FBECFE5D8E0DEBFCDBF21
S11300600E9436000C9452000C9400008FEF84BB65
S113007080E090E013C09C0122953295307F3227B6
S1130080207F3227246025BB2FEB37E249E0215043
S113009030404040E1F700C0000001968A309105ED
S10B00A054F3E6CFF894FFCFFE
S9030000FC
