:100000000C942A000C9434000C9434000C943400AA
:100010000C9434000C9434000C9434000C94340090
:100020000C9434000C9434000C9434000C94340080
:100030000C9434000C9434000C9434000C94340070
:100040000C9434000C9434000C9434000C94340060
:100050000C94340011241FBECFE5D8E0DEBFCDBF25
:100060000E94A7000C94F1000C9400008BB38460F4
:100070008BBB81E090E00E94B9008BB38B7F8BBB80
:100080000895CF93C82F8BB38F709C2F907F892BAF
:1000900085BB8BB38C7F8BBB0E94360081E090E0E8
:1000A0000E94B9002BB330E1C39FC0011124922FED
:1000B0009F70892B85BB0E94360082E090E00E94F1
:1000C000B900CF9108958AB387608ABB8BB38770DC
:1000D0008BBB8FEF84BB84E190E00E94B90082E08B
:1000E0000E94410088E20E9441008FE00E9441008E
:1000F00086E00E94410081E00E94410080E80E9469
:1001000041000895CF93C82F8BB38F709C2F907FA1
:10011000892B85BB8BB381608BBB8BB38D7F8BBBF6
:100120000E94360081E090E00E94B9002BB330E1DC
:10013000C39FC0011124922F9F70892B85BB0E9401
:10014000360082E090E00E94B900CF9108950E94AD
:1001500063000E94CA0081E40E94E90082E40E94D8
:10016000E90083E40E94E9000E94ED000E94820001
:10017000FBCF40E050E00AC02F5F3F4F02C020E0BD
:1001800030E02F3F3105C0F34F5F5F4F48175907ED
:10019000B0F3089510BC83E389B980B5806880BD51
:1001A00080B58F7B80BD80B58F7D80BD80B58F7E13
:1001B00080BD80B5877F80BD80B5826080BD80B501
:1001C000846080BD8AB184608AB98AB188618AB945
:1001D00008955D9BFECF8CB908955F9BFECF8CB1D7
:0601E0000895F894FFCF22
:00000001FF
