S026000053656374696F6E5F41746D65676133325F6578745F696E746572727570742E737265631A
S11300000C942A000C9450000C9477000C949E00DD
S11300100C9434000C9434000C9434000C9434008C
S11300200C9434000C9434000C9434000C9434007C
S11300300C9434000C9434000C9434000C9434006C
S11300400C9434000C9434000C9434000C9434005C
S11300500C94340011241FBECFE5D8E0DEBFCDBF21
S11300600E9436000C9404010C94000081B3806E4D
S113007081BB85B7816085BF85B78C6085BF84B738
S11300808F7B84BF8BB7806E8BBF789482B38F7D58
S113009082BB82B38F7B82BB82B38F7782BBF6CF66
S11300A01F920F920FB60F9211242F933F934F93E9
S11300B05F936F937F938F939F93AF93BF93EF93CC
S11300C0FF9382B3806282BB0E94FB00FF91EF9199
S11300D0BF91AF919F918F917F916F915F914F915C
S11300E03F912F910F900FBE0F901F9018951F9264
S11300F00F920FB60F9211242F933F934F935F9358
S11301006F937F938F939F93AF93BF93EF93FF93DB
S113011082B3806482BB0E94FB00FF91EF91BF9188
S1130120AF919F918F917F916F915F914F913F918B
S11301302F910F900FBE0F901F9018951F920F9242
S11301400FB60F9211242F933F934F935F936F93A6
S11301507F938F939F93AF93BF93EF93FF9382B358
S1130160806882BB0E94FB00FF91EF91BF91AF9129
S11301709F918F917F916F915F914F913F912F91BB
S11301800F900FBE0F901F90189580349105B9F011
S113019030F48130910559F0089769F013C0811546
S11301A021E0920791F08115944099F00BC083B738
S11301B0816083BF07C083B7826083BF03C083B7F6
S11301C0836083BF20E030E010C083B7846083BFC6
S11301D0F9CF83B7856083BFF5CF08B600FEFDCFA6
S11301E088B7816088BF2F5F3F4F26173707A8F372
S11301F0089513BE08956DE470E080E091E00E94DC
S10F0200C5000E94F9000895F894FFCF97
S9030000FC
