:020000040800F2
:1000000000280020C50A0008150B0008150B000881
:10001000150B0008150B0008150B00080000000068
:10002000000000000000000000000000150B0008A8
:10003000150B000800000000150B0008150B000848
:10004000150B0008150B0008150B0008150B000810
:10005000150B0008150B0008710100089501000838
:10006000B9010008DD01000801020008150B0008B5
:10007000150B0008150B0008150B0008150B0008E0
:10008000150B0008150B0008150B0008150B0008D0
:10009000150B0008150B0008150B000825020008B9
:1000A000150B0008150B0008150B0008150B0008B0
:1000B000150B0008150B0008150B0008150B0008A0
:1000C000150B0008150B0008150B0008150B000890
:1000D000150B00082D070008410700085507000808
:1000E000CD020008150B000800000000150B0008E9
:1000F000150B0008150B0008150B0008150B000860
:10010000150B0008150B0008150B0008150B00084F
:10011000150B0008150B0008150B0008150B00083F
:10012000150B0008150B0008150B0008150B00082F
:1001300010B5054C237833B9044B13B10448AFF321
:1001400000800123237010BD00000020000000008B
:10015000600B000808B5034B1BB103490348AFF31C
:10016000008008BD0000000004000020600B0008B3
:1001700080B500AF054B5B69044A43F0010353614E
:10018000034B1B68984700BF80BD00BF00040140BF
:100190001C00002080B500AF054B5B69044A43F0AA
:1001A00002035361034B5B68984700BF80BD00BFEB
:1001B000000401401C00002080B500AF054B5B69C6
:1001C000044A43F004035361034B9B68984700BF04
:1001D00080BD00BF000401401C00002080B500AFBE
:1001E000054B5B69044A43F008035361034BDB682A
:1001F000984700BF80BD00BF000401401C000020E4
:1002000080B500AF054B5B69044A43F010035361AE
:10021000034B1B69984700BF80BD00BF000401402D
:100220001C00002080B500AF264B5B6903F0200363
:10023000002B08D0234B5B69224A43F02003536113
:10024000214B5B6998471F4B5B6903F04003002B10
:1002500008D01C4B5B691B4A43F0400353611A4BA7
:100260009B699847174B5B6903F08003002B08D00C
:10027000144B5B69134A43F080035361124BDB69F3
:100280009847104B5B6903F48073002B08D00D4B2B
:100290005B690C4A43F4807353610B4B1B6A9847AC
:1002A000084B5B6903F40073002B08D0054B5B69B6
:1002B000044A43F400735361034B5B6A984700BFE1
:1002C00080BD00BF000401401C00002080B500AFCD
:1002D0002D4B5B6903F48063002B08D02A4B5B69CC
:1002E000294A43F480635361284B9B6A9847264B05
:1002F0005B6903F40063002B08D0234B5B69224A3F
:1003000043F400635361214BDB6A98471E4B5B69E2
:1003100003F48053002B08D01B4B5B691A4A43F44B
:1003200080535361194B1B6B9847174B5B6903F460
:100330000053002B08D0144B5B69134A43F400535D
:100340005361124B5B6B98470F4B5B6903F480431F
:10035000002B08D00C4B5B690B4A43F4804353617C
:100360000A4B9B6B9847084B5B6903F40043002BD7
:1003700008D0054B5B69044A43F400435361034BC7
:10038000DB6B984700BF80BD000401401C000020CB
:1003900080B400AF0B4B5B689B0803F00303022B98
:1003A0000AD0022B0AD8002B02D0012B02D005E084
:1003B000054B03E0054B01E0044BFFE71846BD4643
:1003C00080BC70470010024000127A000024F40044
:1003D00080B500AFFFF7DCFF0246054B5B681B09E9
:1003E00003F00F030349CB5C22FA03F3184680BDE8
:1003F00000100240800B000880B500AFFFF7E8FF57
:100400000246054B5B681B0A03F007030349CB5CFC
:1004100022FA03F3184680BD00100240780B000852
:1004200080B500AFFFF7D4FF0246054B5B68DB0ADF
:1004300003F007030349CB5C22FA03F3184680BD9F
:1004400000100240780B000880B584B000AF7860DF
:100450003960574A3B6813607B68564A934206D11D
:10046000554B9B69544A43F48043936114E07B6885
:10047000524A934206D1504BDB694F4A43F4003352
:10048000D36109E07B684E4A934205D14A4BDB6950
:10049000494A43F48023D3617B68DB6843F400520C
:1004A0007B68DA607B68DB683A6812781A437B689D
:1004B000DA607B68DB683A68127A1A437B68DA6034
:1004C0007B68DB683A68527A1A437B68DA607B683B
:1004D0001B693A68927A1A437B681A617B685B6988
:1004E0003A68D27A1A437B685A617B68314A9342F0
:1004F00003D1FFF795FFF86002E0FFF77DFFF8609A
:100500003B685B681B01FA68B2FBF3F31901FA68F8
:1005100013469B0013449A001A443B685B689B0097
:10052000B2FBF3F23B685B681B01F868B0FBF3F3C6
:10053000642000FB03F3D31A1B01224AA2FB03230E
:100540005B0903F00F030B43BB607B68BA689A60DA
:100550003B681B7B002B26D07B68DB683A68127BEC
:100560001A437B68DA607B68124A934206D1164BC5
:100570001B68154A43F02003136014E07B680F4AA0
:10058000934206D1104B1B680F4A43F0400313609F
:1005900009E07B680A4A934205D10B4B1B680A4A63
:1005A00043F08003136000BF1037BD4680BD00BF1D
:1005B0005800002000380140001002400044004074
:1005C000004800401F85EB5104E100E080B485B095
:1005D00000AFF860B9601346FB71FB79002B06D1C0
:1005E00000BFFB681B6803F08003002BF9D0BB68D9
:1005F0001B88DAB2FB685A6000BF1437BD4680BC66
:100600007047000080B485B000AFF860B960134651
:10061000FB71FB79002B06D100BFFB681B6803F060
:100620002003002BF9D00D4B1B685B7A002B07D100
:10063000FB685B689BB2DBB29AB2BB681A8007E0CA
:10064000FB685B689BB203F07F039AB2BB681A80B9
:1006500000BF1437BD4680BC704700BF5800002063
:1006600080B584B000AF78607B682B4A934218D184
:100670004FF40073BB810623BB730123FB7307F1A7
:100680000C031946254800F027F94FF48063BB811D
:100690000823BB7307F10C031946204800F01CF92E
:1006A00036E07B681E4A934216D10423BB810623A1
:1006B000BB730123FB7307F10C031946174800F0C5
:1006C0000BF90823BB810823BB7307F10C03194600
:1006D000124800F001F91BE07B68124A934217D1DF
:1006E0004FF48063BB810623BB730123FB7307F1C7
:1006F0000C0319460C4800F0EFF84FF40063BB817F
:100700000823BB7307F10C031946074800F0E4F80F
:1007100000BF1037BD4680BD0038014000080140D1
:100720000044004000480040000C014080B500AF8C
:10073000024B1B681B69984700BF80BD5800002012
:1007400080B500AF024B1B681B69984700BF80BD96
:100750005800002080B500AF024B1B681B6998470A
:1007600000BF80BD5800002080B483B000AF0346B6
:10077000FB80FB88B3F5004F00F0A580B3F5004F78
:1007800000F3A380B3F5804F00F09B80B3F5804F5A
:1007900000F39B80B3F5005F00F09180B3F5005F3C
:1007A00000F39380B3F5805F00F08780B3F5805F3E
:1007B00000F38B80B3F5006F7DD0B3F5006F00F3CD
:1007C0008480B3F5806F74D0B3F5806F7DDCB3F5B2
:1007D000007F6CD0B3F5007F77DCB3F5807F64D009
:1007E000B3F5807F71DC802B5DD0802B6DDC202BFE
:1007F00048DC002B69DD013B1F2B66D801A252F8B3
:1008000023F000BF8B0800088F080008CB08000801
:1008100093080008CB080008CB080008CB080008A4
:1008200097080008CB080008CB080008CB08000890
:10083000CB080008CB080008CB080008CB0800084C
:100840009B080008CB080008CB080008CB0800086C
:10085000CB080008CB080008CB080008CB0800082C
:10086000CB080008CB080008CB080008CB0800081C
:10087000CB080008CB080008CB080008CB0800080C
:100880009F080008402B0CD01FE000231EE004232B
:100890001CE008231AE00C2318E0102316E01423B0
:1008A00014E0182312E01C2310E000230EE00423C0
:1008B0000CE008230AE00C2308E0102306E01423D0
:1008C00004E0182302E01C2300E0002318460C3744
:1008D000BD4680BC704700BF90B585B000AF786062
:1008E00039600023FB600023FB723B681B88FF2BF1
:1008F00001D87B6801E07B680433FB603B681B88A0
:100900001846FFF731FF03461A460F239340DA4398
:10091000FB681B681A40FB681A603B689B78042BD5
:100920000BD03B689B78052B07D03B689B78072B47
:1009300003D03B689B78062B1CD13B689B78043B1B
:100940009B005AB23B68DB785BB213435BB2DBB20D
:1009500003F00F03FB72FC7A3B681B881846FFF715
:1009600003FF034604FA03F2FB681B681A43FB68A3
:100970001A6057E03B689B78002B03D03B689B785C
:10098000012B15D13B689B789B00DBB203F00F0372
:10099000FB72FC7A3B681B881846FFF7E5FE0346AE
:1009A00004FA03F2FB681B681A43FB681A6039E01B
:1009B0003B689B78082B10D10423FB72FC7A3B68C0
:1009C0001B881846FFF7D0FE034604FA03F2FB68C3
:1009D0001B681A43FB681A6024E00823FB72FC7A48
:1009E0003B681B881846FFF7BFFE034604FA03F274
:1009F000FB681B681A43FB681A603B689B78022BF4
:100A000007D17B68DB683A6812881A437B68DA6032
:100A100008E07B68DB683A681288D2431A407B683A
:100A2000DA60FFE700BF1437BD4690BD80B582B0E5
:100A300000AF7860012206490648FFF7E3FD002277
:100A400003490448FFF7C2FD00BF0837BD4680BD1B
:100A50005C0000200038014080B586B000AF164B26
:100A60009B69154A43F004039361134B9B69124A37
:100A700043F008039361104B9B690F4A43F0010355
:100A800093614FF4E133BB600023FB7320233B747D
:100A90000A4B7B6100237B7300233B730023BB73F2
:100AA0000C233B713B1D19460548FFF7CDFC04485C
:100AB000FFF7D6FDFEE700BF001002402D0A000838
:100AC000003801400D488546AFF300800C480D49C1
:100AD0000D4A002302E0D458C4500433C4188C4299
:100AE000F9D30A4A0A4C002301E013600432A242FF
:100AF000FBD300F011F8FFF7AFFFFEE7002800205E
:100B00000000002000000020980B000800000020DA
:100B100060000020FEE7000070B500260C4D0D4C73
:100B2000641BA410A64209D100F01AF800260A4D51
:100B30000A4C641BA410A64205D170BD55F8043BB5
:100B400098470136EEE755F8043B98470136F2E73F
:100B5000900B0008900B0008900B0008940B000805
:100B6000F8B500BFF8BC08BC9E467047F8B500BF9A
:080B7000F8BC08BC9E4670476A
:100B78000000000001020304000000000000000063
:080B880001020304060708093D
:040B90005501000803
:040B94003101000823
:0400000508000AC520
:00000001FF
